:0A0000000C9414010C9400000C9401
:10000A0000000C9400000C9400000C9400000C9466
:10001A0000000C9400000C9400000C9400000C9456
:10002A0000000C9400000C9400000C9457010C94EE
:10003A0000000C9400000C9443010C9400000C94F2
:10004A0000000C9400000C9400000C9400000C9426
:10005A0000000C9478010C94DD060C940000828553
:10006A00888B8F9295989B9EA1A4A7AAADB0B2B592
:10007A00B8BBBEC0C3C6C8CBCDD0D2D4D7D9DBDDBE
:10008A00DFE1E3E5E7E9EAECEEEFF0F2F3F4F5F7A6
:10009A00F8F9F9FAFBFCFCFDFDFDFEFEFEFEFEFE94
:1000AA00FEFDFDFDFCFCFBFAF9F9F8F7F5F4F3F2B5
:1000BA00F0EFEEECEAE9E7E5E3E1DFDDDBD9D7D4FF
:1000CA00D2D0CDCBC8C6C3C0BEBBB8B5B2B0ADAA3C
:1000DA00A7A4A19E9B9895928F8B8885827F7C7915
:1000EA0076736F6C696663605D5A5754514E4C491A
:1000FA004643403E3B383633312E2C2A27252321CE
:10010A001F1D1B1917151412100F0E0C0B0A0907C5
:10011A0006050504030202010101000000000000B7
:10012A00000101010202030405050607090A0B0C76
:10013A000E0F1012141517191B1D1F212325272A0C
:10014A002C2E313336383B3E404346494C4E5154AF
:10015A00575A5D606366696C6F7376797C7F102786
:10016A00E80364000A000100001000011000010009
:10017A000000204552525F7265636569766520000A
:10018A002020202020202020202020202020202065
:10019A002020202020202020202020202020202055
:1001AA002020202020202020202020202020202045
:1001BA002020202020202020202020202020202035
:1001CA0000202057454C434F4D4521202020003127
:1001DA00202020004572726F7220506974616E6926
:1001EA0065212121003331202000363120200039B9
:1001FA003120200020204572726F722053796E637D
:10020A0021212120000080C00700010002007A019C
:10021A0002006E03100201002D0312020000F8947E
:10022A00EE27EFBBF1E0F5BFE5BF8DE0A2E0BB270B
:10023A00ED938A95E9F780E098E0A0E0B1E0ED93CC
:10024A000197E9F7E4E1F2E085919591009761F071
:10025A00A591B59105901590BF01F00105900D92F9
:10026A000197E1F7FB01F0CFE0E0EEBBEFEFEDBF66
:10027A00E8E0EEBFC0E0D3E00C9410020A92EA93E1
:10028A00FA93EFB7EA93530C641C862CE82DF0E03E
:10029A00E859FF4F049007BCE991EFBFF991E99142
:1002AA00099018956A937A93EA93FA93EFB7EA93C7
:1002BA00E0912703F09128036091290370912A03A2
:1002CA00EF5FFF4F6F4F7F4FE0932703F0932803B1
:1002DA006093290370932A03E991EFBFF991E99199
:1002EA00799169911895EA93EFB7EA93BE2CE09059
:1002FA008400E0908500BE1418F4EE2DEB1903C0BB
:10030A00EFEFEB19EE0DCE2EE0E8EC1518F4E0EA6B
:10031A00CE1608F006C0E92D9394E53008F0F09A5D
:10032A0001C09924E991EFBFE9911895AA93E09148
:10033A002D03E03011F4F79A02C0F7982EC0E88135
:10034A00E03059F5A0912C03E0E20E94520A26C03F
:10035A00AA93E881E03011F4E0E220C0F79B17C0CD
:10036A00AA24E0E2AE1690F4AA2DB0E0AE5FBC4F2C
:10037A00EA2DF0E0E25DFC4FE081EC93EA2D0E9469
:10038A006008AA2D0E946508A394EBCF06C00E94BC
:10039A003106ACE7B1E00E945F06E0E021960895DD
:1003AA00BA93AA9324971A930A93A0E0B0E00E9402
:1003BA00EA0A0E94BD09A0E0B0E08AE790E50E943F
:1003CA00EB09DE0112960E9486090E94E50AEE8177
:1003DA00FF81AA81BB818C819D810E944D0A0E9466
:1003EA007D0AEA83FB836C837D83AA81BB818C812E
:1003FA009D81E8EEF3E060E070E00E94BF0A8F01A1
:10040A0019810881289608950E946D08AAE8B1E02A
:10041A000E945F060895E0E8E0936100E0E0E0935F
:10042A006100E4B9E5B9E7B9E7E0E8B9ECE3EAB9AC
:10043A00E0E8EBB9E3E8E4BDE1E0E5BDE0E0E6BD14
:10044A00E7BDE8BDE0938000E1E0E0938100E0E0F1
:10045A00E0938500E0938400E0938700E0938600B0
:10046A00E0938900E0938800E0938B00E0938A0090
:10047A00E093B600E3E2E093B000E1E0E093B1007C
:10048A00E0E0E093B200E093B300E093B400E1E06F
:10049A00E0936E00E0936F00E0E0E0937000E09379
:1004AA006900EDBBE0936800E093C000E8E1E093E7
:1004BA00C100E6E0E093C200E0E0E093C500E7E6B1
:1004CA00E093C400EBE0E0BFE0E0E0937B00E09360
:1004DA007F00E0937A00ECBDEA93E1E2EA93EEE270
:1004EA00F3E0FA93EA93E0E2EA93EEE4F3E0FA93B4
:1004FA00EA93EBE9F1E0FA93EA93ADEAB1E00E94FC
:10050A00A206A0E10E947206ABECB1E00E945F066F
:10051A00E0B7E860E0BFE0B7E77FE0BF5698E4B530
:10052A00EE7FE4BDA0E0B0E0E0E0F4E264EF70E06A
:10053A000E94FE0AA8E3B4E033DF3E2E4F2E772452
:10054A00E0E27E16A0F4E72DF0E0EE5FFC4F0F012B
:10055A00A72D0E946508A72DB0E0A25BBC4FE72D2E
:10056A00F0E0EE5FFC4FE081EC937394E9CF78946E
:10057A00E0E0E093B400DD24E0E8DE1608F027C3EB
:10058A00A0E03099A1E0E0E03299E1E0EA2309F045
:10059A00F698309931C0F6992FC0F69AE3E0EA93BB
:1005AA00A0E00E942006F59B03C0F598A0E222C0B5
:1005BA00F59AAD2DB0E0E0E2F0E00E94950AE093F2
:1005CA002203E03019F4E4E0E0932203E0912203ED
:1005DA00E150E0932203A0E2EA02F001E093220351
:1005EA00E0E0E0932603E5E0E0932403E0E0E09313
:1005FA002503A6E40E943F06F59B7DC0E0912303F4
:10060A00EF5FE0932303E15029F40E947208AFE5FB
:10061A000E943F06A0912303A830B9F40E947908EA
:10062A000E9472080E9497080E94A00859F00E942E
:10063A0097080E94AA0811F0AFEF01C0AEE20E942B
:10064A003F0603C0A0E20E943F06A0912303A13106
:10065A0008F451C0E0E0E093230331992EC0A09141
:10066A002603AF5FA0932603AF3150F0E0E0E0939A
:10067A002603E3E0E0932403E0E0E093250309C0C6
:10068A00A0912603AF3029F4E0912603EF5FE093AF
:10069A002603E0912403EF5FE0932403A09124034F
:1006AA00AF5FA0932403A03140F0E0912503EF5FF0
:1006BA00E0932503E1E0E093240332991CC0F69904
:1006CA001AC0F69A0E9472080E9479080E94970836
:1006DA000E94A00841F00E94AD08E095E121DB01EB
:1006EA00EC93A0E206C00E94AD08E129DB01EC937D
:1006FA00AEE20E943F06AD2DB0E0E4E0F0E00E94D9
:10070A00950AE0930003EE0FEE0FAE2FED2DEA1BD4
:10071A00EE0FE09301030E94BA08E160E4BDE091A4
:10072A006E00E160E0936E000E94C2080E94CC084D
:10073A00A630E0E0BE07E0E08E07E0E09E0710F496
:10074A00A895F4CF5D98DD2061F40E94CC08AB3403
:10075A00E0E0BE07E0E08E07E0E09E0710F4A8950F
:10076A00F4CFE0916E00EE7FE0936E000E94BA082B
:10077A00EE7FE4BD5698E0B7E860E0BF0E94C20889
:10078A000E94D50810F4A895FBCFE0B7E77FE0BF39
:10079A00569AF09BE9C0ED2DF0E0EF31A0E0FA07A0
:1007AA0009F049C0F59940C00E94DE08A9EDB1E000
:1007BA000E94E108E0E0E0930003A0910003A83062
:1007CA0098F5E0E0E0930103A0910003A33011F053
:1007DA00A73021F4A0910103E6E003C0A091010330
:1007EA00E8E00E94520AE030E1F07394EAE0E7158B
:1007FA0010F4E1E07E2E0E94E6080E94A00859F05B
:10080A000E9497080E94AA0811F0AFEF01C0AEE259
:10081A000E943F0603C0A0E20E943F060E94EB0826
:10082A00D3CF0E94F108C9CFF29A0E94F70810F4B8
:10083A00A895FBCF98C0EF30A0E0FA0721F0EF327D
:10084A00A0E0FA0709F404C0EF33A0E0FA0709F4BC
:10085A0004C0EF34A0E0FA0709F404C0EF35A0E0C1
:10086A00FA0709F404C0EF36A0E0FA0709F404C055
:10087A00EF37A0E0FA0719F4F39A5D9A74C00E9460
:10088A0097080E94A00809F461C00E9400091E2E60
:10089A00E0910103A1E0B0E00E94440AA0E0B0E0C8
:1008AA000E94570AE12181F1E0E5E093B4005C9AE5
:1008BA0056987724F09B14C0F098E0B7E860E0BF40
:1008CA000E94C2080E94D50810F4A895FBCFE0B791
:1008DA00E77FE0BF7394EAEFE71508F4F098EACFF0
:1008EA00569AEBEF7E1650F40E9408090E941509E9
:1008FA000E941B090E940009D00104C00E9420091D
:10090A000E942A09EC9311C00E942009EF5F0E94FD
:10091A001509EC930E940809EF5F0E9415090E94CD
:10092A001B090E943109F19A5D9A0E94CC08A737E7
:10093A00E1E0BE07E0E08E07E0E09E0710F4A8952C
:10094A00F4CF5C98EFEFE093B4000DC00E94000969
:10095A000E94340941F00E9408090E942A090E9453
:10096A001B090E94310916C1ED2DF0E0EF31A0E01C
:10097A00FA0759F4F59906C00E943809AEEDB1E0BC
:10098A000E945F06F49AF29805C1EF33A0E0FA07D5
:10099A0009F041C0F5993EC00E94DE08AFEEB1E011
:1009AA000E94E108E8E0E0930003A0910003A0316F
:1009BA0088F5E0E0E0930103A0910003AB3011F069
:1009CA00AF3021F4A0910103E6E003C0A091010336
:1009DA00E8E00E94520AE030D1F07394EAE0E715A9
:1009EA0010F4E1E07E2E0E94E6080E94A00851F071
:1009FA000E9497080E94AA0811F0AFEF01C0AEE268
:100A0A0039D102C0A0E236D10E94EB08D5CF0E94AC
:100A1A00F108CBCFBFC0EF35A0E0FA0709F041C01B
:100A2A00F5993EC00E94DE08A4EFB1E00E94E108F9
:100A3A00E0E1E0930003A0910003A83188F5E0E02B
:100A4A00E0930103A0910003A33111F0A73121F42F
:100A5A00A0910103E6E003C0A0910103E8E00E942F
:100A6A00520AE030D1F07394EAE0E71510F4E1E0BD
:100A7A007E2E0E94E6080E94A00851F00E94970864
:100A8A000E94AA0811F0AFEF01C0AEE2F3D002C093
:100A9A00A0E2F0D00E94EB08D5CF0E94F108CBCF9C
:100AAA0079C0EF37A0E0FA0709F041C0F5993EC0D6
:100ABA000E94DE08A9EFB1E00E94E108E8E1E093B4
:100ACA000003A0910003A03288F5E0E0E09301035F
:100ADA00A0910003AB3111F0AF3121F4A0910103D1
:100AEA00E6E003C0A0910103E8E00E94520AE03068
:100AFA00D1F07394EAE0E71510F4E1E07E2E0E944B
:100B0A00E6080E94A00851F00E9497080E94AA08CD
:100B1A0011F0AFEF01C0AEE2ADD002C0A0E2AAD0A0
:100B2A000E94EB08D5CF0E94F108CBCF33C0EF303B
:100B3A00A0E0FA0721F0EF32A0E0FA0709F404C0B6
:100B4A00EF34A0E0FA0709F404C0EF36A0E0FA0790
:100B5A0009F420C00E9497080E94A00871F40E941C
:100B6A0000090E94340941F00E9408090E942A09DA
:100B7A000E941B090E9431090DC00E9400090E94AF
:100B8A00340941F40E9408090E9415090E941B09B0
:100B9A000E943109F098F29B06C00E94F70810F4EF
:100BAA00A895FBCFF298F39B10C0F398F59906C06D
:100BBA000E943809AEEFB1E07DD006C0E3E0EA93C7
:100BCA00A0E039D0A6E456D002C0D394D5CCD3CC79
:100BDA00FFCFAA93E881E07111F02A9A01C02A98FE
:100BEA00E881E07211F02B9A01C02B98E881E07439
:100BFA0011F02C9A01C02C98E881E07811F02D9A16
:100C0A0001C02D988BE18A95F1F7299A8BE18A9593
:100C1A00F1F729988BE18A95F1F78DC0AA93A881FB
:100C2A00D8DFE881E295E883A881D3DF88EC90E0F9
:100C3A000197F1F780C0AA93E881F0E0E259FC4FEE
:100C4A00E081A981AE0FEADFE981E0937203E881CE
:100C5A00E093730322960895A2E00E943F09ACE054
:100C6A00DDDFA1E00E943F09E0E0E0937303E09337
:100C7A0072030895AA93A881AA3031F0E09174030F
:100C8A00A0917203AE1760F0E0E0EA93A0917303BB
:100C9A00AF5FA0937303CFDFA881AA3009F44BC0DA
:100CAA00E0917203EF5FE0937203289AA881B6DF9E
:100CBA00289841C0BA93AA931A93E981FA81319686
:100CCA00E983FA833197E4911E2FE03019F0A12FBE
:100CDA00D1DFF3CF188123960895AA93229A239AF3
:100CEA00249A259A219A209A279A299828982F98FF
:100CFA00E881E0937403E058E0937003E881E054DC
:100D0A00E0937103A4E1B0E00E944D090E944509F5
:100D1A000E9445090E944509A0E25BDF80E991E053
:100D2A000197F1F7A8E27ADFA4E078DFA5E876DF99
:100D3A00A6E074DF91DF21960895BA93AA93689486
:100D4A0021F8E7E0E0932D03EF81F885E09379033A
:100D5A00F0937A03EE81E0937C03EC81FD81E093CA
:100D6A007603F0937703EA81FB81E0937D03F093A6
:100D7A007E03E881F981E0937F03F0938003449A2C
:100D8A00459AEA85E03029F0E1E0E093BA00EEEF17
:100D9A0005C0E985EE0FE093BA00E0E0E093BD00FC
:100DAA00E091BC00E078E564E093BC002B960895DE
:100DBA000A921A92FA926A937A938A939A93AA93C4
:100DCA00BA93EA93FA93EFB7EA930E941F0B109132
:100DDA002C0300912B033091780320912D03E12FEE
:100DEA00A0917903B0917A03F0E0EA0FFB1FAF01FB
:100DFA00E091B900E87FE83011F420E002C0E03168
:100E0A0019F4E091750310C0E83111F0E83249F5A0
:100E1A00031798F4E02F0F5FA0917603B091770340
:100E2A00F0E0AE0FBF1FEC91E093BB00E091BC0075
:100E3A00EF70E068E093BC0013C0E0917B031E17DB
:100E4A0070F4E0917503E160E0937503E89420F88B
:100E5A00E091BC00EF70E06AE093BC0013C138C0B7
:100E6A0011C1E03531F4E091BB00DA01EC931F5F68
:100E7A0002C0E03489F4E0917B03E1501E1728F0A8
:100E8A00E091BC00EF70E06804C0E091BC00EF7034
:100E9A00E06CE093BC00F6C0E83531F4E091BB00A9
:100EAA00DA01EC931F5F02C0E03209F402C0E033BA
:100EBA0009F402C0E83469F4203051F420FE03C07A
:100ECA00031728F005C0E0917B031E1708F424E0FD
:100EDA00D1C0E83331F422E0E091BC00EF70E06861
:100EEA00CDC0E83611F0E83711F422E005C0E0364B
:100EFA0011F0E037A9F420E010E0E89420F8E0913E
:100F0A007C03E03031F421E0E091BC00EF70E0684E
:100F1A0004C0E091BC00EF70E06CE093BC00B2C08A
:100F2A00E03811F0E03941F520FE02C021E0A2C00C
:100F3A00E091BB00DA01EC931F5FE0917C031E177E
:100F4A00C0F4E0917D03F0917E03309711F426E01E
:100F5A0091C0A0E0E0917D03F0917E030995E03015
:100F6A0039F0E091BC00EF70E06CE093BC008AC0FD
:100F7A0002C0689420F802C0E83809F402C0E839CF
:100F8A0039F4E091BC00EF70E068E093BC007AC0ED
:100F9A00E03AB9F4E091BC00EF70E06CE093BC0079
:100FAA00689421F8E0917D03F0917E03309739F03F
:100FBA00A1E0E0917D03F0917E03099501C026E04E
:100FCA0061C0E03B11F422E002C0E83AB9F4E091D2
:100FDA007F03F0918003309759F0A0E0E0917F03FE
:100FEA00F091800309953E2FE03011F020E002C015
:100FFA0026E040C000E0E89420F802C0E83B01F592
:10100A0020FE02C021E036C0E02F0F5FA0917603D8
:10101A00B0917703F0E0AE0FBF1FEC91E093BB00F5
:10102A00031728F4E091BC00EF70E06C06C06894E6
:10103A0020F8E091BC00EF70E068E093BC0022C0A9
:10104A00E03C11F0E83C99F4E091BC00EF70E06CF0
:10105A00E093BC00E0917F03F0918003309731F078
:10106A00A1E0E0917F03F0918003099509C0E03087
:10107A0049F423E0E091BC00EF70E06DE093BC001E
:10108A00689421F810932C0300932B0320932D03CB
:10109A00309378030E94260B2696E991EFBFF991C7
:1010AA00E991B991A9919991899179916991F99067
:1010BA00199009901895F0E0E25BFC4F0F01089532
:1010CA00B0E0AC5FBF4F0E94F20AD001EC930895E2
:1010DA00E0E0EA93A0E00C942006E0912403EA936E
:1010EA00A09125030C942006A0912603BB27E0912A
:1010FA002203F0E0AE0FBF1FE4E0F0E00E94950A81
:10110A00E0930003E0912203A0912603AE0FE09141
:10111A000003EE0FEE0FAE1BE2E0EA02F001E093ED
:10112A0001030895E0910003F0E0EE5FFC4F1080A8
:10113A00E09101030895A1E0B0E00E94440AA12DC4
:10114A00B0E0EA23FB2330970895F0E03196F3CF1D
:10115A00E0910003F0E0EE5FFC4FBF011080E091E8
:10116A000103A1E00E943C0A0895E0E0E7BDE0E443
:10117A00F2EC5E2E6F2EE4B50895E0E0E0932703CB
:10118A00E0932803E0932903E0932A030895A091AA
:10119A002703B09128038091290390912A03089587
:1011AA00F6DFA930E0E0BE07E0E08E07E0E09E0748
:1011BA0008950E9409028CCF0E945F06E1E07E2E0C
:1011CA000895A72DA15D0E943F06ACCFE0910103CF
:1011DA00EE5FE09301030895E0910003EF5FE0936F
:1011EA0000030895D4DFAD37E0E0BE07E0E08E07E4
:1011FA00E0E09E070895A0910003B0E0AC5FBF4F06
:10120A000E94F20A0895E0910003F0E0EC5FFF4FBC
:10121A00BF01DF010E94F20A1E2EE0910103089528
:10122A00A1E00E943C0AE129DB0108950E940E0B0D
:10123A00E091000340CFE0910003F0E0EE5FFC4F45
:10124A00BF011080E09101030895A3E00E943C0AC7
:10125A00E095E121DB010895A091000331CF1E2E14
:10126A00E091010368CF0E940902E0E0EA93A1E05D
:10127A000C9420060E941306A3E0B0E00C944D09DA
:10128A00A0E30E94EE0580E991E00197F1F7089545
:10129A00109639F080EA9FE00197F1F7A895119727
:1012AA00C9F70895552342F4503811F4E0FF04C0F9
:1012BA003196691F791F6BF050E8572711F45F9335
:1012CA0073C05F3F31F0660F000C57956795752F15
:1012DA0008955F9300200AF073C06CC050E8192E7D
:1012EA001522880F991F9527550F879550E8072EC5
:1012FA000522660F771F7527550F6795089568941D
:10130A0001C0E8945F93F2DF703818F07F3F08F469
:10131A004BC056E1571BAAF4519558300EF4593078
:10132A0030F0EFEFFFEF6FEF7FE777F91AC077271B
:10133A005523B9F0EE0FFF1F661F771F5A95D1F795
:10134A0010C07727583028F0EF2FF62F672F585004
:10135A00F9CF552331F076956795F795E7955A9524
:10136A00D1F700200AF47BD05F910895689401C0F8
:10137A00E894309760407040B1F0002426F077235B
:10138A0012F400946CD0172E7EE1112032F07A9577
:10139A00EE0FFF1F661F111CF9CFEF2FF62F612DDD
:1013AA005F938ADF5F910895EE27FF2766277727E5
:1013BA005F910895EFEFFFEF6FE77FEF5F91089579
:1013CA00EFEFFFEF6FE77FE75F9108955F9386DFA7
:1013DA00703821F411200AF4EDCFF2CF903809F4D5
:1013EA00E3CF01240894970B1BF4D4F30020F3CF26
:1013FA00792F1F932F933F934F931124112722275D
:10140A0033274427552790E2AE17BF0786074107BF
:10141A0030F0AE1BBF0B860B410B089401C08894B9
:10142A00551F221F331F111CAA1FBB1F881F441FD1
:10143A009A9551F7F901612D4F913F912F911F9183
:10144A00662332F0550FEE1FFF1F661F7A9543F28F
:10145A0029DF5F910895F195E195F0400895F0959F
:10146A0060957095E195FF4F6F4F7F4F0895EE237A
:10147A000E2EEA2F19F0EE0F0A94E9F70895EE23DB
:10148A000E2EFD0121F0EE0FFF1F0A94E1F70895D9
:10149A006F2F660F660B762F0895AE17E1E008F0FE
:1014AA00EE270895EA17FB07E1E009F0EE27089511
:1014BA007A9F702D6B9F700DF89F700DE99F700DCC
:1014CA006A9F602D710DFB9F600D711DE89F600D75
:1014DA00711D8827FA9FF02D610D781FEB9FF00D83
:1014EA00611D781FEA9FE02DF10D681F781F08958E
:1014FA0054D0DEDF0EF4B3DF08950024112490E106
:10150A00AA0FBB1F001C111C0E1A1F0A18F40E0E7C
:10151A001F1E01C0A1609A9599F7FD01D001089597
:10152A002ED0EBDF0EF497DF08953F934F935F932E
:10153A00002411244427552730E2AA0FBB1F881F15
:10154A00991F001C111C441F551F0E1A1F0A460B17
:10155A00570B28F40E0E1F1E461F571F01C0A1600D
:10156A003A9559F7FD01BC01D001CA015F914F912B
:10157A003F91089512D0D9DF0EF471DF0895E894EF
:10158A00F7FF02C068DF6894B7FF06C0A095B09560
:10159A00119600F8039400FA0895E89477FF02C0C0
:1015AA005EDF689497FF0BC00024A095B0958095E4
:1015BA0090951196801D901D00F8039400FA0895E5
:1015CA00ED93FD936D937C930895129602D0BF011B
:1015DA001297119602D0FE2F1197F999FECFFF9319
:1015EA00FFB7F894A1BDB2BDF89AE0B5FFBFFF916D
:1015FA00089507D012960F01FB0103D0F00112974C
:10160A00089507D01196EF93EF2F03D0EF9111971A
:10161A000895F99B02C0A895FCCF9FB7F894A1BD85
:10162A00B2BDF89A80B5E81719F0E0BDFA9AF99AAE
:10163A009FBF08955A934A933A932A931A930A9307
:10164A0008955D814C813B812A8119810881089521
:00000001FF
