:100000000C940D010C9400000C9400000C94000062
:100010000C9400000C9400000C9400000C94000060
:100020000C9400000C9400000C9400000C94000050
:100030000C9400000C9450010C9400000C940000EF
:100040000C943C010C9400000C9400000C940000F3
:100050000C9400000C9400000C9400000C947101AE
:100060000C9494060C9400008285888B8F9295984E
:100070009B9EA1A4A7AAADB0B2B5B8BBBEC0C3C673
:10008000C8CBCDD0D2D4D7D9DBDDDFE1E3E5E7E9DA
:10009000EAECEEEFF0F2F3F4F5F7F8F9F9FAFBFC1D
:1000A000FCFDFDFDFEFEFEFEFEFEFEFDFDFDFCFC7C
:1000B000FBFAF9F9F8F7F5F4F3F2F0EFEEECEAE910
:1000C000E7E5E3E1DFDDDBD9D7D4D2D0CDCBC8C6BD
:1000D000C3C0BEBBB8B5B2B0ADAAA7A4A19E9B9841
:1000E00095928F8B8885827F7C7976736F6C696639
:1000F00063605D5A5754514E4C494643403E3B382D
:100100003633312E2C2A272523211F1D1B191715A5
:100110001412100F0E0C0B0A090706050504030242
:1001200002010101000000000000000101010202C3
:10013000030405050607090A0B0C0E0F101214150F
:1001400017191B1D1F212325272A2C2E3133363842
:100150003B3E404346494C4E5154575A5D6063669E
:10016000696C6F7376797C7F1027E80364000A005E
:1001700001000010000110000100000020202020DC
:10018000202020202020202020202020202020206F
:10019000202020202020202020202020202020205F
:1001A000202020202020202020202020202020204F
:1001B0002020202020202020202020200020205728
:1001C000454C434F4D452120202000312020200068
:1001D0004572726F7220506974616E6965212121C8
:1001E000003331202000363120200039312020001A
:1001F00020204572726F722053796E632121212075
:10020000000080C00700010002007A0102006D03B7
:10021000020201002C0304020000F894EE27EFBB59
:10022000F1E0F5BFE5BF8DE0A2E0BB27ED938A9535
:10023000E9F780E098E0A0E0B1E0ED930197E9F7FD
:10024000E6E0F2E085919591009761F0A591B59176
:1002500005901590BF01F00105900D920197E1F70F
:10026000FB01F0CFE0E0EEBBEFEFEDBFE8E0EEBF6B
:10027000C0E0D3E00C94EE010A92EA93FA93EFB750
:10028000EA93530C641C862CE82DF0E0E859FF4FEC
:10029000049008BCE991EFBFF991E9910990189594
:1002A0006A937A93EA93FA93EFB7EA93E09126037D
:1002B000F09127036091280370912903EF5FFF4FAE
:1002C0006F4F7F4FE0932603F0932703609328033B
:1002D00070932903E991EFBFF991E99179916991BF
:1002E0001895EA93EFB7EA93CB2CB0908400B090C6
:1002F0008500CB1418F4EB2DEC1903C0EFEFEC19CB
:10030000EB0D9E2EE0E8E91518F4E0EA9E1608F0E1
:1003100006C0EA2DA394E53008F0F09A01C0AA24A3
:10032000E991EFBFE9911895AA93E0912C03E03091
:1003300019F0E0E00C945706E881E03019F0E0E0B5
:100340000C945706A0912B03E0E20E94F5090C944F
:100350005706AA93E881E03019F4E0E20C945706BE
:10036000E0E00C945706BA93AA9324971A930A9341
:10037000A0E0B0E00E948D0A0E946009A0E0B0E019
:100380008AE790E50E948E09DE0112960E942909F3
:100390000E94880AEE81FF81AA81BB818C819D81A8
:1003A0000E94F0090E94200AEA83FB836C837D830C
:1003B000AA81BB818C819D81E8EEF3E060E070E072
:1003C0000E94620A8F0119810881289608950E946F
:1003D0001208ACE7B1E00E9416060895E0E8E09349
:1003E0006100E0E0E0936100E4B9E5B9E7B9E7E076
:1003F000E8B9ECE3EAB9E0E8EBB9E3E8E4BDE1E051
:10040000E5BDE0E0E6BDE7BDE8BDE0938000E1E0EA
:10041000E0938100E0E0E0938500E0938400E093C6
:100420008700E0938600E0938900E0938800E093E2
:100430008B00E0938A00E093B600E3E2E093B00023
:10044000E1E0E093B100E0E0E093B200E093B300BC
:10045000E0E8E093B400E1E0E0936E00E0936F0029
:10046000E0E0E0937000E0936900EDBBE09368008A
:10047000E093C000E8E1E093C100E6E0E093C20051
:10048000E0E0E093C500E7E6E093C400EBE0E0BF06
:10049000E0E0E0937B00E0937F00E0937A00ECBD26
:1004A000EA93E1E2EA93EDE2F3E0FA93EA93E0E221
:1004B000EA93EDE4F3E0FA93EA93E4E9F1E0FA93E6
:1004C000EA93A9EAB1E00E945906A0E10E94290638
:1004D000ADEBB1E00E941606E0B7E860E0BFE0B720
:1004E000E77FE0BF5698E5B5EE7FE5BDA0E0B0E060
:1004F000E0E0F4E264EF70E00E94A10AA8E3B4E057
:1005000032DF3E2E4F2E7724E0E27E1620F40E944A
:1005100017087394F9CF7894E0E00E9425080E94B0
:10052000310810F4A895FBCFE0E50E9425080E9451
:10053000310810F4A895FBCFE0E50E9425080E9441
:10054000310810F4A895FBCFE0EB0E9425080E942B
:10055000310810F4A895FBCFEFEFE093B4007724B7
:10056000EFE17E1620F40E9417087394F9CFEE2471
:10057000E0E8EE1608F0E7C2A0E03099A1E0E0E084
:100580003299E1E0EA2309F0F698309931C0F69902
:100590002FC0F69AE3E0EA93A0E00E94D705F59B0E
:1005A00003C0F598A0E222C0F59AAE2DB0E0E0E2DB
:1005B000F0E00E94380AE0932103E03019F4E4E00F
:1005C000E0932103E0912103E150E0932103A0E2B5
:1005D000EA02F001E0932103E0E0E0932503E5E087
:1005E000E0932303E0E0E0932403A6E40E94F605F1
:1005F000F59B7DC0E0912203EF5FE0932203E15081
:1006000029F40E944108AFE50E94F605A09122035B
:10061000A830B9F40E9448080E9441080E9464086A
:100620000E946C0859F00E9464080E94760811F03C
:10063000AFEF01C0AEE20E94F60503C0A0E20E9447
:10064000F605A0912203A13108F451C0E0E0E09347
:10065000220331992EC0A0912503AF5FA0932503FB
:10066000AF3150F0E0E0E0932503E3E0E0932303B3
:10067000E0E0E093240309C0A0912503AF3029F402
:10068000E0912503EF5FE0932503E0912303EF5F03
:10069000E0932303A0912303AF5FA0932303A03132
:1006A00040F0E0912403EF5FE0932403E1E0E09366
:1006B000230332991CC0F6991AC0F69A0E94410889
:1006C0000E9448080E9464080E946C0841F00E9441
:1006D0007908E095E121DB01EC93A0E206C00E94DD
:1006E0007908E129DB01EC93AEE20E94F605AE2D1C
:1006F000B0E0E4E0F0E00E94380ADE2EEE0FEE0FEC
:10070000AE2FEE2DEA1BEE0FE0930003E5B5E1609E
:10071000E5BD569A0E9485080E948F08A630E0E049
:10072000BE07E0E08E07E0E09E0710F4A895F4CF46
:100730005D98EE2061F40E948F08AB34E0E0BE07C4
:10074000E0E08E07E0E09E0710F4A895F4CFEFE715
:10075000E8BD5698E5B5EE7FE5BDE0B7E860E0BFDF
:100760000E9485080E948F08A930E0E0BE07E0E003
:100770008E07E0E09E0710F4A895F4CFE0B7E77F7E
:10078000E0BFF09BBAC0EE2DF0E0EF31A0E0FA0739
:1007900009F045C0F5993CC00E949808ABECB1E067
:1007A0000E949B08DD24E8E0DE1690F5E0E0E0938F
:1007B0000003E3E0ED1519F0E7E0ED1521F4A09159
:1007C0000003E6E003C0A0910003E8E00E94F50901
:1007D000E030E1F07394EAE0E71510F4E1E07E2EFA
:1007E0000E94A0080E946C0859F00E9464080E94B0
:1007F000760811F0AFEF01C0AEE20E94F60503C02B
:10080000A0E20E94F6050E94A508D3CFD394CBCFD7
:10081000F29A0E94AB0810F4A895FBCF6DC0EF30A0
:10082000A0E0FA0721F0EF32A0E0FA0709F404C0D3
:10083000EF33A0E0FA0709F404C0EF34A0E0FA07B0
:1008400009F404C0EF35A0E0FA0709F404C0EF365C
:10085000A0E0FA0709F404C0EF37A0E0FA0719F4A2
:10086000F39A5D9A49C00E9464080E946C0879F16D
:100870000E94B408A1E0B0E00E94E709A0E0B0E067
:100880000E94FA09E12159F0E0E8E093B4005C9A93
:100890000E94BE08E129DB010E94B10A11C0ED2DC2
:1008A000F0E0EF5FFC4FBF011080E0910003EF5FCD
:1008B000A1E00E94DF09E129DB01EC93F19A5D9A46
:1008C0000E94CD0810F4A895FBCF5C9812C00E943E
:1008D000B4080E946C0881F00E94D608E095E121DE
:1008E000DB010E94B10A0E94CD0810F4A895FBCF4D
:1008F0005A98E0E0E093B40009C1EE2DF0E0EF314A
:10090000A0E0FA0759F4F59906C00E94DB08A0EDB3
:10091000B1E00E941606F49AF298F8C0EF33A0E016
:10092000FA0709F040C0F5993DC00E949808A1EE71
:10093000B1E00E949B08E8E0DE2EE0E1DE1690F5D3
:10094000E0E0E0930003EBE0ED1519F0EFE0ED15CA
:1009500021F4A0910003E6E003C0A0910003E8E0C9
:100960000E94F509E030E1F07394EAE0E71510F435
:10097000E1E07E2E0E94A0080E946C0859F00E94BF
:1009800064080E94760811F0AFEF01C0AEE20E9449
:10099000F60503C0A0E20E94F6050E94A508D3CF89
:1009A000D394CBCFB3C0EF35A0E0FA07F1F5F599BA
:1009B0003BC00E949808A6EEB1E00E949B08E0E1CF
:1009C000DE2EE8E1DE1680F5E0E0E0930003E3E1EF
:1009D000ED1519F0E7E1ED1521F4A0910003E6E033
:1009E00003C0A0910003E8E00E94F509E030D1F0D7
:1009F0007394EAE0E71510F4E1E07E2E0E94A0086F
:100A00000E946C0851F00E9464080E94760811F060
:100A1000AFEF01C0AEE2EAD002C0A0E2E7D00E9490
:100A2000A508D5CFD394CDCF71C0EF37A0E0FA079A
:100A3000F1F5F5993BC00E949808ABEEB1E00E9439
:100A40009B08E8E1DE2EE0E2DE1680F5E0E0E093D0
:100A50000003EBE1ED1519F0EFE1ED1521F4A091A4
:100A60000003E6E003C0A0910003E8E00E94F5095E
:100A7000E030D1F07394EAE0E71510F4E1E07E2E67
:100A80000E94A0080E946C0851F00E9464080E9415
:100A9000760811F0AFEF01C0AEE2A8D002C0A0E22C
:100AA000A5D00E94A508D5CFD394CDCF2FC0EF30CD
:100AB000A0E0FA0721F0EF32A0E0FA0709F404C041
:100AC000EF34A0E0FA0709F404C0EF36A0E0FA071B
:100AD00009F41CC00E9464080E946C08B9F40E94CA
:100AE000B4080E946C0889F00E94D608E095E121C4
:100AF000DB010E94B10A0E94CD0810F4A895FBCF3B
:100B00005A98E0E0E093B40001C05D9AF098F29B3F
:100B100006C00E94AB0810F4A895FBCFF298F39B97
:100B200010C0F398F59906C00E94DB08A0EFB1E071
:100B30007DD006C0E3E0EA93A0E039D0A6E456D029
:100B400002C0E39415CD13CDFFCFAA93E881E071E5
:100B500011F02A9A01C02A98E881E07211F02B9ACC
:100B600001C02B98E881E07411F02C9A01C02C98F8
:100B7000E881E07811F02D9A01C02D988BE18A95DB
:100B8000F1F7299A8BE18A95F1F729988BE18A95FB
:100B9000F1F78DC0AA93A881D8DFE881E295E883B8
:100BA000A881D3DF88EC90E00197F1F780C0AA9389
:100BB000E881F0E0E359FC4FE081A981AE0FEADF64
:100BC000E981E0937103E881E0937203229608952E
:100BD000A2E00E94E208ACE0DDDFA1E00E94E208B2
:100BE000E0E0E0937203E09371030895AA93A88173
:100BF000AA3031F0E0917303A0917103AE1760F059
:100C0000E0E0EA93A0917203AF5FA0937203CFDF9D
:100C1000A881AA3009F44BC0E0917103EF5FE09323
:100C20007103289AA881B6DF289841C0BA93AA9385
:100C30001A93E981FA813196E983FA833197E49135
:100C40001E2FE03019F0A12FD1DFF3CF18812396AA
:100C50000895AA93229A239A249A259A219A209A4F
:100C6000279A299828982F98E881E0937303E058F1
:100C7000E0936F03E881E054E0937003A4E1B0E0F7
:100C80000E94F0080E94E8080E94E8080E94E80814
:100C9000A0E25BDF80E991E00197F1F7A8E27ADF5B
:100CA000A4E078DFA5E876DFA6E074DF91DF219687
:100CB0000895BA93AA93689420F8E7E0E0932C0390
:100CC000EF81F885E0937803F0937903EE81E09368
:100CD0007B03EC81FD81E0937503F0937603EA8159
:100CE000FB81E0937C03F0937D03E881F981E0933D
:100CF0007E03F0937F03449A459AEA85E03029F019
:100D0000E1E0E093BA00EEEF05C0E985EE0FE09375
:100D1000BA00E0E0E093BD00E091BC00E078E5645B
:100D2000E093BC002B9608950A921A92FA926A9365
:100D30007A938A939A93AA93BA93EA93FA93EFB722
:100D4000EA930E94C20A10912B0300912A0330916A
:100D5000770320912C03E12FA0917803B0917903C0
:100D6000F0E0EA0FFB1FAF01E091B900E87FE83047
:100D700011F420E002C0E03119F4E091740310C0D6
:100D8000E83111F0E83241F5031798F4E02F0F5FD6
:100D9000A0917503B0917603F0E0AE0FBF1FEC9108
:100DA000E093BB00E091BC00EF70E068E093BC0012
:100DB00012C0E0917A031E1768F4E0917403E160B9
:100DC000E0937403F798E091BC00EF70E06AE09361
:100DD000BC000FC138C00DC1E03531F4E091BB005B
:100DE000DA01EC931F5F02C0E03489F4E0917A03EA
:100DF000E1501E1728F0E091BC00EF70E06804C0DD
:100E0000E091BC00EF70E06CE093BC00F2C0E8350C
:100E100031F4E091BB00DA01EC931F5F02C0E032D5
:100E200009F402C0E03309F402C0E83469F4203068
:100E300051F4F79B03C0031728F005C0E0917A0333
:100E40001E1708F424E0CDC0E83331F422E0E0912D
:100E5000BC00EF70E068C9C0E83611F0E83711F463
:100E600022E005C0E03611F0E037A1F420E010E008
:100E7000F798E0917B03E03031F421E0E091BC0091
:100E8000EF70E06804C0E091BC00EF70E06CE093AC
:100E9000BC00AFC0E03811F0E03939F5F79B02C073
:100EA00021E09FC0E091BB00DA01EC931F5FE0916D
:100EB0007B031E17C0F4E0917C03F0917D03309713
:100EC00011F426E08EC0A0E0E0917C03F0917D0358
:100ED0000995E03039F0E091BC00EF70E06CE093F0
:100EE000BC0087C001C0F79A02C0E83809F402C00C
:100EF000E83939F4E091BC00EF70E068E093BC00A1
:100F000078C0E03AB9F4E091BC00EF70E06CE09397
:100F1000BC00689420F8E0917C03F0917D03309749
:100F200039F0A1E0E0917C03F0917D03099501C0C7
:100F300026E05FC0E03B11F422E002C0E83AB1F4E1
:100F4000E0917E03F0917F03309759F0A0E0E091AB
:100F50007E03F0917F0309953E2FE03011F020E0F1
:100F600002C026E03EC000E0F79802C0E83BF9F47A
:100F7000F79B02C021E035C0E02F0F5FA091750301
:100F8000B0917603F0E0AE0FBF1FEC91E093BB0091
:100F9000031728F4E091BC00EF70E06C05C0F79AED
:100FA000E091BC00EF70E068E093BC0022C0E03C40
:100FB00011F0E83C99F4E091BC00EF70E06CE09334
:100FC000BC00E0917E03F0917F03309731F0A1E007
:100FD000E0917E03F0917F03099509C0E03049F468
:100FE00023E0E091BC00EF70E06DE093BC006894FA
:100FF00020F810932B0300932A0320932C033093A3
:1010000077030E94C90A2696E991EFBFF991E99109
:10101000B991A9919991899179916991F9901990D2
:1010200009901895E0E0EA93A0E00C94D705E72D2D
:10103000F0E0EF5FFC4F0F01A72DB0E0AC5FBF4FBA
:101040000E94950AD001EC930895E093B400E0E08B
:10105000E0932603E0932703E0932803E09329031A
:101060000895A0912603B0912703809128039091C1
:101070002903AC3BE2E0BE07E0E08E07E0E09E071C
:101080000895E0912303EA93A09124030C94D705DB
:10109000A0912503BB27E0912103F0E0AE0FBF1F15
:1010A000E4E0F0E00E94380ADE2EE0912103A091F6
:1010B0002503AE0FED2DEE0FEE0FAE1BE2E0EA02C0
:1010C000F001E09300030895ED2DF0E0EF5FFC4F99
:1010D0001080E09100030895A1E0B0E00E94E709CC
:1010E000A12DB0E0EA23FB2330970895F0E031967C
:1010F000F3CFED2DF0E0EF5FFC4FBF011080E091EA
:101100000003A1E00E94DF090895E0E0E0932603D8
:10111000E0932703E0932803E09329030895A09127
:101120002603B09127038091280390912903089505
:101130000E94E70177CF0E941606E1E07E2E089517
:10114000A72DA15D0E94F605BFCFE0910003EE5FE1
:10115000E09300030895E3DFAD37E0E0BE07E0E091
:101160008E07E0E09E070895AD2DB0E0AC5FBF4F65
:101170000E94950A1E2EE09100030895ED2DF0E0E7
:10118000EC5FFF4FBF01DF010E94950A1E2EE09128
:101190000003A1E00E94DF090895C1DFA737E1E065
:1011A000BE07E0E08E07E0E09E070895E0E8E093E8
:1011B000B4005A9AE3CF0E94E701E0E0EA93A1E08D
:1011C0000C94D7050E94CA05A3E0B0E00C94F00887
:1011D000A0E30E94A50580E991E00197F1F7089549
:1011E000109639F080EA9FE00197F1F7A8951197E2
:1011F000C9F70895552342F4503811F4E0FF04C0B4
:101200003196691F791F6BF050E8572711F45F93EF
:1012100073C05F3F31F0660F000C57956795752FCF
:1012200008955F9300200AF073C06CC050E8192E37
:101230001522880F991F9527550F879550E8072E7F
:101240000522660F771F7527550F679508956894D7
:1012500001C0E8945F93F2DF703818F07F3F08F424
:101260004BC056E1571BAAF4519558300EF4593033
:1012700030F0EFEFFFEF6FEF7FE777F91AC07727D6
:101280005523B9F0EE0FFF1F661F771F5A95D1F750
:1012900010C07727583028F0EF2FF62F672F5850BF
:1012A000F9CF552331F076956795F795E7955A95DF
:1012B000D1F700200AF47BD05F910895689401C0B3
:1012C000E894309760407040B1F0002426F0772316
:1012D00012F400946CD0172E7EE1112032F07A9532
:1012E000EE0FFF1F661F111CF9CFEF2FF62F612D98
:1012F0005F938ADF5F910895EE27FF2766277727A0
:101300005F910895EFEFFFEF6FE77FEF5F91089533
:10131000EFEFFFEF6FE77FE75F9108955F9386DF61
:10132000703821F411200AF4EDCFF2CF903809F48F
:10133000E3CF01240894970B1BF4D4F30020F3CFE0
:10134000792F1F932F933F934F9311241127222717
:1013500033274427552790E2AE17BF07860741077A
:1013600030F0AE1BBF0B860B410B089401C0889474
:10137000551F221F331F111CAA1FBB1F881F441F8C
:101380009A9551F7F901612D4F913F912F911F913E
:10139000662332F0550FEE1FFF1F661F7A9543F24A
:1013A00029DF5F910895F195E195F0400895F0955A
:1013B00060957095E195FF4F6F4F7F4F0895EE2335
:1013C0000E2EEA2F19F0EE0F0A94E9F70895EE2396
:1013D0000E2EFD0121F0EE0FFF1F0A94E1F7089594
:1013E0006F2F660F660B762F0895AE17E1E008F0B9
:1013F000EE270895EA17FB07E1E009F0EE270895CC
:101400007A9F702D6B9F700DF89F700DE99F700D86
:101410006A9F602D710DFB9F600D711DE89F600D2F
:10142000711D8827FA9FF02D610D781FEB9FF00D3D
:10143000611D781FEA9FE02DF10D681F781F089548
:1014400054D0DEDF0EF4B3DF08950024112490E1C0
:10145000AA0FBB1F001C111C0E1A1F0A18F40E0E37
:101460001F1E01C0A1609A9599F7FD01D001089552
:101470002ED0EBDF0EF497DF08953F934F935F93E9
:10148000002411244427552730E2AA0FBB1F881FD0
:10149000991F001C111C441F551F0E1A1F0A460BD2
:1014A000570B28F40E0E1F1E461F571F01C0A160C8
:1014B0003A9559F7FD01BC01D001CA015F914F91E6
:1014C0003F91089512D0D9DF0EF471DF0895E894AA
:1014D000F7FF02C068DF6894B7FF06C0A095B0951B
:1014E000119600F8039400FA0895E89477FF02C07B
:1014F0005EDF689497FF0BC00024A095B09580959F
:1015000090951196801D901D00F8039400FA08959F
:10151000ED93FD936D937C930895129602D0BF01D5
:101520001297119602D0FE2F1197F999FECFFF93D3
:10153000FFB7F894A1BDB2BDF89AE0B5FFBFFF9127
:10154000089507D012960F01FB0103D0F001129706
:10155000089507D01196EF93EF2F03D0EF911197D5
:101560000895F99B02C0A895FCCF9FB7F894A1BD40
:10157000B2BDF89A80B5E81719F0E0BDFA9AF99A69
:101580009FBF08955A934A933A932A931A930A93C2
:1015900008955D814C813B812A81198108810895DC
:00000001FF
