:0C0000000C940D010C9400000C94000006
:10000C000C9400000C9400000C9400000C94000064
:10001C000C9400000C9400000C9400000C94000054
:10002C000C9400000C9400000C9450010C940000F3
:10003C000C9400000C943C010C9400000C940000F7
:10004C000C9400000C9400000C9400000C94000024
:10005C000C9471010C94C8050C9400008285888B5B
:10006C008F9295989B9EA1A4A7AAADB0B2B5B8BB30
:10007C00BEC0C3C6C8CBCDD0D2D4D7D9DBDDDFE16F
:10008C00E3E5E7E9EAECEEEFF0F2F3F4F5F7F8F973
:10009C00F9FAFBFCFCFDFDFDFEFEFEFEFEFEFEFD88
:1000AC00FDFDFCFCFBFAF9F9F8F7F5F4F3F2F0EFCF
:1000BC00EEECEAE9E7E5E3E1DFDDDBD9D7D4D2D03A
:1000CC00CDCBC8C6C3C0BEBBB8B5B2B0ADAAA7A491
:1000DC00A19E9B9895928F8B8885827F7C79767375
:1000EC006F6C696663605D5A5754514E4C49464378
:1000FC00403E3B383633312E2C2A272523211F1D19
:10010C001B1917151412100F0E0C0B0A09070605F4
:10011C0005040302020101010000000000000001BF
:10012C0001010202030405050607090A0B0C0E0F58
:10013C001012141517191B1D1F212325272A2C2ECD
:10014C00313336383B3E404346494C4E5154575A56
:10015C005D606366696C6F7376797C7F1027E8034A
:10016C0064000A00010000100001100001000000F2
:10017C002020202020202020202020202020202073
:10018C002020202020202020202020202020202063
:10019C002020202020202020202020202020202053
:1001AC002020202020202020202020202020202043
:1001BC0000202057454C434F4D4521202020003135
:1001CC00202020004572726F7220506974616E6934
:1001DC0065212121003331202000363120200039C7
:1001EC003120200020204572726F722053796E638B
:1001FC0021212120000080C00700010002007A01AB
:10020C000200680302020100270304020000F894B4
:10021C00EE27EFBBF1E0F5BFE5BF8DE0A2E0BB2719
:10022C00ED938A95E9F780E098E0A0E0B1E0ED93DA
:10023C000197E9F7E6E0F2E085919591009761F07E
:10024C00A591B59105901590BF01F00105900D9207
:10025C000197E1F7FB01F0CFE0E0EEBBEFEFEDBF74
:10026C00E8E0EEBFC0E0D3E00C94EE010A92EA9312
:10027C00FA93EFB7EA93530C641C862CE82DF0E04C
:10028C00E859FF4F049008BCE991EFBFF991E9914F
:10029C00099018956A937A93EA93FA93EFB7EA93D5
:1002AC00E0912103F09122036091230370912403C8
:1002BC00EF5FFF4F6F4F7F4FE0932103F0932203CB
:1002CC006093230370932403E991EFBFF991E991B3
:1002DC00799169911895EA93EFB7EA93CB2CB0908A
:1002EC008400B0908500CB1418F4EB2DEC1903C0EE
:1002FC00EFEFEC19EB0D9E2EE0E8E91518F4E0EAAF
:10030C009E1608F006C0EA2DA394E53008F0F09A8A
:10031C0001C0AA24E991EFBFE9911895AA93E09145
:10032C002703E03019F0E0E00C948B05E881E03015
:10033C0019F0E0E00C948B05A0912603E0E20E94FA
:10034C00D1080C948B05AA93E881E03019F4E0E213
:10035C000C948B05E0E00C948B05BA93AA9324972C
:10036C001A930A93A0E0B0E00E9463090E943C0833
:10037C00A0E0B0E08AE790E50E946A08DE011296E0
:10038C000E9405080E945E09EE81FF81AA81BB8153
:10039C008C819D810E94CC080E94F608EA83FB8325
:1003AC006C837D83AA81BB818C819D81E8EEF3E017
:1003BC0060E070E00E9438098F011981088128964D
:1003CC0008950E944607ACE7B1E00E944A050895E3
:1003DC00E0E8E0936100E0E0E0936100E4B9E5B9A6
:1003EC00E7B9E1E0E8B9ECE3EAB9E0E8EBB9E3E856
:1003FC00E4BDE1E0E5BDE0E0E6BDE7BDE8BDE093CE
:10040C008000E1E0E0938100E0E0E0938500E09380
:10041C008400E0938700E0938600E0938900E093EA
:10042C008800E0938B00E0938A00E093B600E3E24F
:10043C00E093B000E1E0E093B100E0E0E093B200C3
:10044C00E093B300E0E8E093B400E1E0E0936E00E9
:10045C00E0936F00E0E0E0937000E0936900EDBB87
:10046C00E0936800E093C000E8E1E093C100E6E0AF
:10047C00E093C200E0E0E093C500E7E6E093C4003F
:10048C00EBE0E0BFE0E0E0937B00E0937F00E093E3
:10049C007A00ECBDEA93E1E2EA93E8E2F3E0FA9346
:1004AC00EA93E0E2EA93E8E4F3E0FA93EA93E4E90E
:1004BC00F1E0FA93EA93A9EAB1E00E948D05A0E17C
:1004CC000E945D05ADEBB1E00E944A05E0B7E86023
:1004DC00E0BFE0B7E77FE0BF5698E5B5EE7FE5BD3E
:1004EC00A0E0B0E0E0E0F4E264EF70E00E94770995
:1004FC00A8E3B4E032DF3E2E4F2E7724E0E27E16E6
:10050C0038F40E944B07E7E00E9487097394F6CFFA
:10051C007724E0E27E1640F40E9450070E946B099B
:10052C00D001EC937394F5CF7894E0E0E093B400B1
:10053C007724EFE17E1640F40E9450070E946B096D
:10054C00D001EC937394F5CFEE24E0E8EE1608F0AE
:10055C0028C23099F69830990EC0F6990CC0F69ACC
:10056C000E945607F59B03C0F598A0E202C0F59ACD
:10057C00A6E40E942A05AE2DB0E0E4E0F0E00E9473
:10058C000E09DE2EEE0FEE0FAE2FEE2DEA1BEE0F48
:10059C00E0930003E5B5E160E5BD569A0E945B0768
:1005AC000E9465070E946E07D8F35D98EE2051F407
:1005BC000E946507AB34E0E0BE07E0E08E07E0E0A8
:1005CC009E07B0F3EFE7E8BD5698E5B5EE7FE5BDC5
:1005DC00E0B7E860E0BF0E945B070E9465070E94DD
:1005EC006E07D8F3E0B7E77FE0BFF09BB6C0EE2D07
:1005FC00F0E0EF31A0E0FA0709F049C0F5993BC0F3
:10060C000E947607ABECB1E00E947907DD24E8E0AC
:10061C00DE1680F5E0E0E0930003E3E0ED1519F061
:10062C00E7E0ED1521F4A0910003E6E003C0A091F2
:10063C000003E8E00E94D108E030D1F07394EAE0C6
:10064C00E71510F4E1E07E2E0E947E0759F00E941F
:10065C0093070E949B0711F0AFEF01C0AEE20E941E
:10066C002A0503C0A0E20E942A050E94A707D5CF45
:10067C00D394CDCF0AC00E945607309903C0F59889
:10068C00A0E201C0A6E40E942A05F29A65C0EF30F0
:10069C00A0E0FA0721F0EF32A0E0FA0709F404C059
:1006AC00EF33A0E0FA0709F404C0EF34A0E0FA0736
:1006BC0009F404C0EF35A0E0FA0709F404C0EF36E2
:1006CC00A0E0FA0709F404C0EF37A0E0FA0719F428
:1006DC00F39A5D9A41C00E9493070E94AD07E1F125
:1006EC000E946507AC30E0E0BE07E0E08E07E0E07A
:1006FC009E07B0F3F0980E946507A231E0E0BE07B8
:10070C00E0E08E07E0E09E07B0F3F09B12C0ED2D09
:10071C00F0E0EF5FFC4FBF011080E0910003EF5F52
:10072C00A1E00E94BB08E129DB01EC93F19A5D9AF0
:10073C0004C0E0E8E093B4005C9A0E946507A73718
:10074C00E1E0BE07E0E08E07E0E09E0710F45C9865
:10075C00F4CFE0E0E093B40004C1EE2DF0E0EF3113
:10076C00A0E0FA0751F4F59905C00E94B707A0ED77
:10077C00B1E08AD1F49AF298F4C0EF33A0E0FA0712
:10078C00E1F5F59939C00E947607A1EEB1E00E941F
:10079C007907E8E0DE2EE0E1DE1670F5E0E0E093AC
:1007AC000003EBE0ED1519F0EFE0ED1521F4A0914D
:1007BC000003E6E003C0A0910003E8E00E94D1082A
:1007CC00E030C1F07394EAE0E71510F4E1E07E2E1E
:1007DC000E947E0751F00E9493070E949B0711F024
:1007EC00AFEF01C0AEE230D102C0A0E22DD10E9429
:1007FC00A707D7CFD394CFCFB4C0EF35A0E0FA077B
:10080C00E1F5F59939C00E947607A6EEB1E00E9499
:10081C007907E0E1DE2EE8E1DE1670F5E0E0E0932A
:10082C000003E3E1ED1519F0E7E1ED1521F4A091DA
:10083C000003E6E003C0A0910003E8E00E94D108A9
:10084C00E030C1F07394EAE0E71510F4E1E07E2E9D
:10085C000E947E0751F00E9493070E949B0711F0A3
:10086C00AFEF01C0AEE2F0D002C0A0E2EDD00E942A
:10087C00A707D7CFD394CFCF74C0EF37A0E0FA0738
:10088C0009F056C0F59939C00E947607ABEEB1E07D
:10089C000E947907E8E1DE2EE0E2DE1670F5E0E07A
:1008AC00E0930003EBE1ED1519F0EFE1ED1521F408
:1008BC00A0910003E6E003C0A0910003E8E00E94D1
:1008CC00D108E030C1F07394EAE0E71510F4E1E0F0
:1008DC007E2E0E947E0751F00E9493070E949B0778
:1008EC0011F0AFEF01C0AEE2AFD002C0A0E2ACD0CD
:1008FC000E94A707D7CFD394CFCF7724EFE17E16F2
:10090C00B0F4E72DF0E0EF5FFC4F00800E944B0746
:10091C000E946B09E01549F00E944B07E72DF0E0AF
:10092C00EF5FFC4FE0810E9487097394E7CF19C0F9
:10093C00EF30A0E0FA0721F0EF32A0E0FA0709F45B
:10094C0004C0EF34A0E0FA0709F404C0EF36A0E0CD
:10095C00FA0709F406C00E9493070E94AD0709F438
:10096C005D9AF098F29B0BC00E946507AD37E0E0F2
:10097C00BE07E0E08E07E0E09E07B0F3F298F39B31
:10098C000EC0F398F59906C00E94B707A0EFB1E02E
:10099C007BD004C00E945607A6E456D002C0E39454
:1009AC00D4CDD2CDFFCFAA93E881E07111F02A9A71
:1009BC0001C02A98E881E07211F02B9A01C02B98A3
:1009CC00E881E07411F02C9A01C02C98E881E07851
:1009DC0011F02D9A01C02D988BE18A95F1F7299A87
:1009EC008BE18A95F1F729988BE18A95F1F78DC007
:1009FC00AA93A881D8DFE881E295E883A881D3DFA8
:100A0C0088EC90E00197F1F780C0AA93E881F0E0C0
:100A1C00E859FC4FE081A981AE0FEADFE981E09350
:100A2C006C03E881E0936D0322960895A2E00E9486
:100A3C00BE07ACE0DDDFA1E00E94BE07E0E0E09382
:100A4C006D03E0936C030895AA93A881AA3031F04A
:100A5C00E0916E03A0916C03AE1760F0E0E0EA93B6
:100A6C00A0916D03AF5FA0936D03CFDFA881AA3077
:100A7C0009F44BC0E0916C03EF5FE0936C03289A90
:100A8C00A881B6DF289841C0BA93AA931A93E9813A
:100A9C00FA813196E983FA833197E4911E2FE03085
:100AAC0019F0A12FD1DFF3CF188123960895AA93C3
:100ABC00229A239A249A259A219A209A279A29983D
:100ACC0028982F98E881E0936E03E058E0936A032E
:100ADC00E881E054E0936B03A4E1B0E00E94CC0702
:100AEC000E94C4070E94C4070E94C407A0E25BDFF7
:100AFC0080E991E00197F1F7A8E27ADFA4E078DFD2
:100B0C00A5E876DFA6E074DF91DF21960895BA930D
:100B1C00AA93689420F8E7E0E0932703EF81F88527
:100B2C00E0937303F0937403EE81E0937603EC810E
:100B3C00FD81E0937003F0937103EA81FB81E093F4
:100B4C007703F0937803E881F981E0937903F093CC
:100B5C007A03449A459AEA85E03029F0E1E0E09383
:100B6C00BA00EEEF05C0E985EE0FE093BA00E0E0C5
:100B7C00E093BD00E091BC00E078E564E093BC003C
:100B8C002B9608950A921A92FA926A937A938A9300
:100B9C009A93AA93BA93EA93FA93EFB7EA930E94C3
:100BAC00980910912603009125033091720320912E
:100BBC002703E12FA0917303B0917403F0E0EA0FC7
:100BCC00FB1FAF01E091B900E87FE83011F420E0A1
:100BDC0002C0E03119F4E0916F0310C0E83111F05C
:100BEC00E83241F5031798F4E02F0F5FA0917003E2
:100BFC00B0917103F0E0AE0FBF1FEC91E093BB001E
:100C0C00E091BC00EF70E068E093BC0012C0E09192
:100C1C0075031E1768F4E0916F03E160E0936F03B6
:100C2C00F798E091BC00EF70E06AE093BC000FC154
:100C3C0038C00DC1E03531F4E091BB00DA01EC9322
:100C4C001F5F02C0E03489F4E0917503E1501E1778
:100C5C0028F0E091BC00EF70E06804C0E091BC00AB
:100C6C00EF70E06CE093BC00F2C0E83531F4E09139
:100C7C00BB00DA01EC931F5F02C0E03209F402C042
:100C8C00E03309F402C0E83469F4203051F4F79BE6
:100C9C0003C0031728F005C0E09175031E1708F474
:100CAC0024E0CDC0E83331F422E0E091BC00EF70D9
:100CBC00E068C9C0E83611F0E83711F422E005C04D
:100CCC00E03611F0E037A1F420E010E0F798E09165
:100CDC007603E03031F421E0E091BC00EF70E06885
:100CEC0004C0E091BC00EF70E06CE093BC00AFC0BE
:100CFC00E03811F0E03939F5F79B02C021E09FC0D4
:100D0C00E091BB00DA01EC931F5FE09176031E17B4
:100D1C00C0F4E0917703F0917803309711F426E05A
:100D2C008EC0A0E0E0917703F09178030995E03054
:100D3C0039F0E091BC00EF70E06CE093BC0087C030
:100D4C0001C0F79A02C0E83809F402C0E83939F456
:100D5C00E091BC00EF70E068E093BC0078C0E03A32
:100D6C00B9F4E091BC00EF70E06CE093BC006894C7
:100D7C0020F8E0917703F0917803309739F0A1E0F7
:100D8C00E0917703F0917803099501C026E05FC0EC
:100D9C00E03B11F422E002C0E83AB1F4E0917903AF
:100DAC00F0917A03309759F0A0E0E0917903F0913B
:100DBC007A0309953E2FE03011F020E002C026E0C6
:100DCC003EC000E0F79802C0E83BF9F4F79B02C084
:100DDC0021E035C0E02F0F5FA0917003B09171033B
:100DEC00F0E0AE0FBF1FEC91E093BB00031728F4AB
:100DFC00E091BC00EF70E06C05C0F79AE091BC008C
:100E0C00EF70E068E093BC0022C0E03C11F0E83CDD
:100E1C0099F4E091BC00EF70E06CE093BC00E091C1
:100E2C007903F0917A03309731F0A1E0E0917903E6
:100E3C00F0917A03099509C0E03049F423E0E09180
:100E4C00BC00EF70E06DE093BC00689420F8109348
:100E5C0026030093250320932703309372030E94EB
:100E6C009F092696E991EFBFF991E991B991A99162
:100E7C009991899179916991F990199009901895A6
:100E8C00E0E0EA93A0E00C940B05A72DB0E0AC5F7A
:100E9C00BF4F0895E72DF0E0EF5FFC4F0F01F5CF4A
:100EAC00E3E0EA93A0E00C940B05E0E0E09321036F
:100EBC00E0932203E0932303E09324030895A0918D
:100ECC002103B09122038091230390912403089570
:100EDC00A630E0E0BE07E0E08E07E0E09E07089554
:100EEC000E94E701CDCF0E944A05E1E07E2E0895D5
:100EFC00A72DA15D0E942A05ED2DF0E0EF5FFC4FC0
:100F0C001080E0910003A1E0B0E00E94C308A12D85
:100F1C00B0E0EA23FB2330970895ED2DF0E0EF5F6E
:100F2C00FC4F1080E09100030895F0E03196A1E0B1
:100F3C00B0E00E94C308A12DB0E0EA23FB23309758
:100F4C000895E0910003EE5FE09300030895A1E0A3
:100F5C00B0E00E94C308A12DB0E0EA23FB23309738
:100F6C0008950E94E701E0E0EA93A1E00C940B05E0
:100F7C000E94FE04A3E0B0E00C94CC07A0E30E9416
:100F8C00D90480E991E00197F1F70895109639F0B2
:100F9C0080EA9FE00197F1F7A8951197C9F708959A
:100FAC00552342F4503811F4E0FF04C03196691F08
:100FBC00791F6BF050E8572711F45F9373C05F3FB4
:100FCC0031F0660F000C57956795752F08955F9358
:100FDC0000200AF073C06CC050E8192E1522880F3F
:100FEC00991F9527550F879550E8072E0522660FF8
:100FFC00771F7527550F67950895689401C0E8947D
:10100C005F93F2DF703818F07F3F08F44BC056E165
:10101C00571BAAF4519558300EF4593030F0EFEFBD
:10102C00FFEF6FEF7FE777F91AC077275523B9F0F9
:10103C00EE0FFF1F661F771F5A95D1F710C0772749
:10104C00583028F0EF2FF62F672F5850F9CF552333
:10105C0031F076956795F795E7955A95D1F700207D
:10106C000AF47BD05F910895689401C0E89430979E
:10107C0060407040B1F0002426F0772312F4009405
:10108C006CD0172E7EE1112032F07A95EE0FFF1FF7
:10109C00661F111CF9CFEF2FF62F612D5F938ADF9E
:1010AC005F910895EE27FF27662777275F910895B4
:1010BC00EFEFFFEF6FE77FEF5F910895EFEFFFEF3B
:1010CC006FE77FE75F9108955F9386DF703821F4B7
:1010DC0011200AF4EDCFF2CF903809F4E3CF0124BC
:1010EC000894970B1BF4D4F30020F3CF792F1F93A4
:1010FC002F933F934F9311241127222733274427F3
:10110C00552790E2AE17BF078607410730F0AE1B9C
:10111C00BF0B860B410B089401C08894551F221FEE
:10112C00331F111CAA1FBB1F881F441F9A9551F710
:10113C00F901612D4F913F912F911F91662332F050
:10114C00550FEE1FFF1F661F7A9543F229DF5F9143
:10115C000895F195E195F0400895F095609570959E
:10116C00E195FF4F6F4F7F4F0895EE230E2EEA2F20
:10117C0019F0EE0F0A94E9F70895EE230E2EFD01F7
:10118C0021F0EE0FFF1F0A94E1F708956F2F660F01
:10119C00660B762F0895AE17E1E008F0EE27089560
:1011AC007A9F702D6B9F700DF89F700DE99F700DDD
:1011BC006A9F602D710DFB9F600D711DE89F600D86
:1011CC00711D8827FA9FF02D610D781FEB9FF00D94
:1011DC00611D781FEA9FE02DF10D681F781F08959F
:1011EC0054D0DEDF0EF4B9DF08950024112490E111
:1011FC00AA0FBB1F001C111C0E1A1F0A18F40E0E8E
:10120C001F1E01C0A1609A9599F7FD01D0010895A8
:10121C002ED0EBDF0EF49DDF08953F934F935F9339
:10122C00002411244427552730E2AA0FBB1F881F26
:10123C00991F001C111C441F551F0E1A1F0A460B28
:10124C00570B28F40E0E1F1E461F571F01C0A1601E
:10125C003A9559F7FD01BC01D001CA015F914F913C
:10126C003F91089512D0D9DF0EF477DF0895E894FA
:10127C00F7FF02C06EDF6894B7FF06C0A095B0956B
:10128C00119600F8039400FA0895E89477FF02C0D1
:10129C0064DF689497FF0BC00024A095B0958095EF
:1012AC0090951196801D901D00F8039400FA0895F6
:1012BC00ED93FD936D937C930895129602D0BF012C
:1012CC001297119602D0FE2F1197F999FECFFF932A
:1012DC00FFB7F894A1BDB2BDF89AE0B5FFBFFF917E
:1012EC00089507D012960F01FB0103D0F00112975D
:1012FC00089507D01196EF93EF2F03D0EF9111972C
:10130C000895F99B02C0A895FCCF9FB7F894A1BD96
:10131C00B2BDF89A80B5E81719F0E0BDFA9AF99ABF
:10132C009FBF08955A934A933A932A931A930A9318
:10133C0008955D814C813B812A8119810881089532
:00000001FF
